:0A00000012C0FECFFDCFFCCFFBCFF6
:10000A00FACFF9CFF8CFF7CFF6CFF5CFF4CFF3CFBA
:10001A00F2CFF1CFF0CFEFCFEECFEDCFF894EE27BE
:10002A00ECBBF1E0FBBFEBBFE5BFF8E1F1BDE1BD21
:10003A008DE0A2E0BB27ED938A95E9F780E094E092
:10004A00A0E6ED930197E9F7EFE5EDBFE4E0EEBF37
:10005A00C0E6D1E0D0C0E881E064E7B98BE18A95D7
:10006A00F1F7369A349BFECF349AE4B1F5B1219672
:10007A00089512D114D1EA0FFB1FAA81BB81AE17D2
:10008A00BF0750F409D10BD166D1EA1BFB0BAA8139
:10009A00BB81EA17FB0708F002C0E1E001C0E0E01B
:1000AA00249608955FD1E885E13011F4E4E001C0B7
:1000BA00E5E01E2F1A93CFDF9F01EFE0F0E0F6D0C4
:1000CA0025D11A93C8DFAF01EE81FF81EFD0F1D0BD
:1000DA0029F0EE81FF81EAD0F1D009F402C0E1E013
:1000EA0001C0E0E046D129960895EDD0AA39E3E0AF
:1000FA00BE0750F0EBD019F4A89AA99A04C0E9D027
:10010A0011F4AA9AAB9A75C0DED0A636E0E0BE0713
:10011A00A8F4DCD039F4A99AA898DED011F4E4D076
:10012A00FCCF08C0D6D049F4AB9AAA98D5D011F41E
:10013A00DBD0FCCFE4EFF1E0DBD05BC0C4D0A73664
:10014A00E2E0BE07E0F0C2D061F4A99AA898C4D050
:10015A0011F4CAD0FCCFA998A89ACCD0A99AA89A87
:10016A000DC0B7D059F4AB9AAA98B6D011F4BCD046
:10017A00FCCFAB98AA9ABED0AB9AAA9A3AC0A3D09F
:10018A00A433E1E0BE07A8F0A1D039F4A89AA9984F
:10019A00A3D011F4A9D0FCCF08C09BD049F4AA9AE5
:1001AA00AB989AD011F4A0D0FCCFE4EFF1E0A0D044
:1001BA0020C089D0A736E0E0BE07D8F087D061F426
:1001CA00A89AA99889D011F48FD0FCCFA898A99A97
:1001DA0091D0A89AA99A0DC07CD059F4AA9AAB9842
:1001EA007BD011F481D0FCCFAA98AB9A83D0AA9A7B
:1001FA00AB9A2396089500E010E020E030E040E05A
:10020A0050E0EFE0E8BBE0E0E7BBE5BBEFE0E4BBD2
:10021A00E0E0E2BBEFEFE1BBE0E0E3BFE2BFEFBD4E
:10022A00EEBDEDBDECBDE7BDE6BDEBBDEABDE9BD8A
:10023A00E8BDE2BDE5BDE4BDE3BDE5BFE9BFEAB99E
:10024A00E0E8E8B9E0E0E0BFE0E4E7B9E1E8E6B910
:10025A00E0E0EDB9E6BF51D08F0146D04ED09F0104
:10026A0043D04BD0AF014CD024D019F049D026D07E
:10027A0009F404C045D0E1E0EA9337DF44D08F01A6
:10028A0033D041D09F0130D03ED0AF0139D0E2E027
:10029A00EA932BDFE0CFFFCFA881B9810895EAE086
:1002AA0041D0DF01E4E6F0E043D0F6CFFA93EA93D7
:1002BA0008953A932A93DDDEE03008955A934A93DB
:1002CA00D8DEE0300895A981BA810895E881E13045
:1002DA000895E881E2300895E881EA93EA81FB8192
:1002EA00E5DFE0DEE1300895EAE0F0E0DFDF0EC0AE
:1002FA00DDDF0CC0E9E1F0E0FBCFE4E0EA93ABCE4E
:10030A001A930A930895E5E0EA93A5CEE991F99143
:10031A00309639F080ED97E00197F1F7A89531977B
:10032A00C9F708956E2F6A9FF0016B9FF00D08952B
:10033A000024112490E1AA0FBB1F001C111C0E1AE5
:10034A001F0A18F40E0E1F1E01C0A1609A9599F794
:10035A00FD01D00108951B2EBF2FF12D1A2EAE2FAD
:10036A00E12D08955A934A933A932A931A930A933A
:10037A0008955D814C813B812A8119810881089504
:00000001FF
