:0A00000018C0FECFFDCFFCCFFBCFF0
:10000A00FACFF9CFF8CFF7CFF6CFF5CFF4CFF3CFBA
:10001A00F2CFF1CFF0CFEFCFEECFEDCF000000005F
:10002A000400040026000000F894EE27ECBBF1E07F
:10003A00FBBFEBBFE5BFF8E1F1BDE1BD8DE0A2E09A
:10004A00BB27ED938A95E9F780E094E0A0E6ED936B
:10005A000197E9F7EAE2F0E085919591009761F05E
:10006A00A591B59105901590BF01F00105900D92EB
:10007A000197E1F7FB01F0CFEFE5EDBFE4E0EEBF5A
:10008A00C0E6D1E0CBC0E881E064E7B98BE18A95AC
:10009A00F1F7369A349BFECF349AE4B1F5B1219642
:1000AA00089527D1A636E0E0BE0798F425D121F4B9
:1000BA0026D111F427D109F003C0A898A99808C03D
:1000CA0024D121F425D111F426D109F001C026D179
:1000DA009AC00FD1AA39E3E0BE07D0F00DD121F4BE
:1000EA0017D111F418D109F006C0EEE15E2E77247B
:1000FA00A998A89A0CC009D121F401D111F402D10E
:10010A0009F005C0EEE14E2E6624AB98AA9A7BC090
:10011A00F0D0A939E1E0BE0750F5EED021F4EFD0D6
:10012A0011F4F0D009F003C0A998A89A09C0EDD03B
:10013A0021F4EED011F4EFD009F002C0AB98AA9ADC
:10014A00DBD019F4A0E0A71508F004C07724A99819
:10015A00A89809C0DAD019F4A0E0A61508F006C0DC
:10016A006624AB98AA98ECE2F1E0DBD04CC0C1D08F
:10017A00AC3CE2E0BE07D0F4BFD021F4C9D011F400
:10018A00CAD009F006C05524EEE17E2EA898A99A95
:10019A000CC0BBD021F4B3D011F4B4D009F005C01F
:1001AA004424EEE16E2EAA98AB9A2DC0A2D0A939AA
:1001BA00E3E0BE0740F5A0D021F4A1D011F4A2D00B
:1001CA0009F003C0A898A99A09C09FD021F4A0D029
:1001DA0011F4A1D009F002C0AA98AB9A8DD019F4F3
:1001EA00A0E0A51508F004C05524A898A99808C04D
:1001FA008CD019F4A0E0A41508F005C044248ED0D0
:10020A00ECE2F1E08ED023960895A898A99886D0BA
:10021A0077246624EEE15E2E4E2E089500E010E06B
:10022A0020E030E05524442477246624EFE0E8BB3C
:10023A00E0E0E7BBE5BBEFE0E4BBE0E0E2BBEFEF09
:10024A00E1BBE0E0E3BFE2BFEFBDEEBDEDBDECBD5B
:10025A00E7BDE6BDEBBDEABDE9BDE8BDE2BDE5BD72
:10026A00E4BDE3BDE5BFE9BFEAB9E0E8E8B9E0E02B
:10027A00E0BFE0E4E7B9E1E8E6B9E0E0EDB9E6BFFE
:10028A00E4E0EA9300DF8F011A930A93E1E0EA932C
:10029A0008DFE5E0EA93F7DE9F013A932A93E2E06A
:1002AA00EA93FFDEE0E0E51528F438D0A998A89A89
:1002BA005A9412C0E0E0E41530F4A998A898AB98D3
:1002CA00AA9A4A9409C0E0E0E71510F47A9404C0A7
:1002DA00E0E0E61508F46A94B19B02C0B29B03C041
:1002EA0094DF909A01C09098E4E6F0E01AD0C8CF63
:1002FA00FFCFA981BA810895E881E1300895A0E08D
:10030A005A160895A0E07A160895E881E230089511
:10031A00A0E04A160895A0E06A160895AA98AB9834
:10032A000895FA93EA9300C0E991F991309639F069
:10033A0080ED97E00197F1F7A8953197C9F70895ED
:00000001FF
