:0200000012C02C
:10000200FECFFDCFFCCFFBCFFACFF9CFF8CFF7CFA2
:10001200F6CFF5CFF4CFF3CFF2CFF1CFF0CFEFCFD2
:10002200EECFEDCFF894EE27ECBBF1E0FBBFEBBFD8
:10003200E5BFF8E1F1BDE1BD8DE0A2E0BB27ED93A4
:100042008A95E9F780E094E0A0E6ED930197E9F75D
:10005200EFE5EDBFE4E0EEBFC0E6D1E0E4C0E88149
:10006200E064E7B98BE18A95F1F7369A349BFECFCB
:10007200349AE4B1F5B168C02DD12FD1EA0FFB1F3C
:10008200AA81BB81EA17FB0750F024D126D19BD16C
:10009200EA1BFB0BAA81BB81AE17BF0708F402C0A3
:1000A200E1E001C0E0E02496089594D1E885E130D2
:1000B20011F4E4E001C0E5E01E2F16D19F01EFE04C
:1000C200F0E014D153D110D1AF0113D115D119F0F1
:1000D20010D117D109F402C0E1E001C0E0E081D102
:1000E200299608951A93E981E13011F4E4E001C000
:1000F200E5E01E2F2497F8D0EA83FB8307D1F4D0E2
:10010200E883F983EA81FB81F1D0EC81FD81EED0B5
:10011200B3DFE03031F0AA81BB81A739E3E0BE074B
:1001220008F403C0E1E0249605C0E9E1F0E0F2D072
:100132002496E0CF188122960895EED0E12903C0DB
:10014200EBD0E095E121E5BB2196089547D100E08F
:1001520010E0E7D0A739E3E0BE0718F0E5D0F0DF02
:100162005CC0DFD0A636E0E0BE07B8F401E010E0E4
:10017200ED81FE8131960E171F0738F4AA9AC6D078
:10018200AA98C4D00D5F1F4FF3CFD1D0CDD0D2D01B
:10019200CBD0D2D0D3D0A6DF43C0C3D0AF3FE1E0B3
:1001A200BE07A8F0C1D0CCDFEA81EA93C6DFC6D091
:1001B200A0D07BDFE13021F4EAE0F0E0ABD0F7CF72
:1001C200B3D0BAD0A3D0B0D0B5D0EB8127C0A9D0DC
:1001D200A030E1E0BE0750F0A7D0B2DFEA81EA9397
:1001E200A9D0A2D0A9D0AAD07DDF1AC09AD0AF3FA1
:1001F200E0E0BE07A8F49BD097D09FDF9FD079D0D4
:1002020054DFE13021F4EAE0F0E084D0F7CF8CD083
:1002120093D07CD0EA81EA938DD0EA81EA9390DF91
:10022200E4D02796089500E010E020E030E040E0BE
:1002320050E0EFE0E8BBE0E0E7BBE5BBEFE0E4BBAA
:10024200E0E0E2BBEFEFE1BBE0E0E3BFE2BFEFBD26
:10025200EEBDEDBDECBDE7BDE6BDEBBDEABDE9BD62
:10026200E8BDE2BDE5BDE4BDE3BDE5BFE9BFEAB976
:10027200E0E8E8B9E0E0E0BFE0E4E7B9E1E8E6B9E8
:10028200E0E0EDB9E6BF5DD05FD05BD061D059D080
:1002920063D019F065D035D009F408C061D0E1E02F
:1002A200EA93E0E0EA93E1E0EA9350DF5CD04CD0DD
:1002B2005AD04ED058D050D019F052D022D009F492
:1002C20007C04ED0E2E0EA93EA93E3E0EA933EDF2E
:1002D200DACFFFCFA881B9810895EAE05BD0DF01D0
:1002E200E4E6F0E05DD0F6CF1A93B9CEFA93EA9342
:1002F2000895EE81FF81FACF3A932A93BDDEE03072
:1003020008955A934A93B8DEE0300895E2E3F0E0AC
:10031200EDDF2CC0EBDF2AC015B2E881A1E032D0BC
:100322000895AD81BE810895EB81EA930895EA8133
:10033200EA9306CF02DFEACF03DFF9CFEC81EA933B
:100342000895E4E0EA938BCE8F01E4E1F0E0E2CF9E
:100352009F01E4E1F0E0DECFAF011A930A93CCCF24
:100362001A930A930895E5E0EA9379CEE991F99117
:10037200309639F080ED97E00197F1F7A895319723
:10038200C9F70895EE230E2EEA2F19F0EE0F0A9404
:10039200E9F708956E2F6A9FF0016B9FF00D0895A3
:1003A2000024112490E1AA0FBB1F001C111C0E1A7D
:1003B2001F0A18F40E0E1F1E01C0A1609A9599F72C
:1003C200FD01D00108951B2EBF2FF12D1A2EAE2F45
:1003D200E12D08955A934A933A932A931A930A93D2
:1003E20008955D814C813B812A811981088108959C
:00000001FF
