:0A00000012C0FECFFDCFFCCFFBCFF6
:10000A00FACFF9CFF8CFF7CFF6CFF5CFF4CFF3CFBA
:10001A00F2CFF1CFF0CFEFCFEECFEDCFF894EE27BE
:10002A00ECBBF1E0FBBFEBBFE5BFF8E1F1BDE1BD21
:10003A008DE0A2E0BB27ED938A95E9F780E094E092
:10004A00A0E6ED930197E9F7EFE5EDBFE4E0EEBF37
:10005A00C0E6D1E0BDC0E881E064E7B98BE18A95EA
:10006A00F1F7369A349BFECF349AE4B1F5B1219672
:10007A00089501D103D1EA0FFB1FAA81BB81AE17F4
:10008A00BF0750F4F8D0FAD04CD1EA1BFB0BAA8177
:10009A00BB81EA17FB0708F002C0E1E001C0E0E01B
:1000AA00249608951A93E981E13011F4E4E001C03D
:1000BA00E5E01E2F24971A93CEDFEA83FB83E8E25A
:1000CA00F0E0E3D009D11A93C6DFE883F983EA8125
:1000DA00FB81DBD0EC81FD81D8D0CBDFE03031F081
:1000EA00AA81BB81AA39E3E0BE0708F403C0E1E0B4
:1000FA00249603C0CDD02496DDCF18812296089588
:10010A00CBD0AA39E3E0BE0750F0C9D019F4A89AB7
:10011A00A99A04C0C7D011F4AA9AAB9A57C0BCD006
:10012A00A636E0E0BE0760F4BAD019F4A99AA898F6
:10013A0004C0B8D021F4AB9AAA98E881B6D046C0D8
:10014A00ABD0A736E2E0BE07B0F0A9D049F4A99A2D
:10015A00A898ADD0A998A89A9BD0A99AA89A0AC09B
:10016A00A1D041F4AB9AAA98A2D0AB98AA9A90D0FF
:10017A00AB9AAA9A2BC090D0A433E1E0BE0760F0F4
:10018A008ED019F4A89AA99804C08CD021F4AA9AFE
:10019A00AB98E8818AD01AC07FD0A736E0E0BE07C4
:1001AA00A8F07DD049F4A89AA99881D0A898A99ACC
:1001BA006FD0A89AA99A0AC075D041F4AA9AAB98A6
:1001CA0076D0AA98AB9A64D0AA9AAB9A2396089545
:1001DA0000E010E020E030E040E050E0EFE0E8BB73
:1001EA00E0E0E7BBE5BBEFE0E4BBE0E0E2BBEFEF5A
:1001FA00E1BBE0E0E3BFE2BFEFBDEEBDEDBDECBDAC
:10020A00E7BDE6BDEBBDEABDE9BDE8BDE2BDE5BDC2
:10021A00E4BDE3BDE5BFE9BFEAB9E0E8E8B9E0E07B
:10022A00E0BFE0E4E7B9E1E8E6B9E0E0EDB9E6BF4E
:10023A0040D042D03ED045D03CD0AF0147D03A93CF
:10024A002A9317DFE03031F041D05A934A9311DFF5
:10025A00E03009F404C03AD0E1E0EA9351DF39D042
:10026A002BD037D02ED035D0AF0130D0E2E0EA9390
:10027A0047DFDECFFFCFA881B9810895E5E038D006
:10028A00DF01E4E6F0E03AD0F6CFFA93EA93089574
:10029A00E9E1F0E0FADF20C0A981BA810895E88196
:1002AA00E1300895E881E2300895EA93FBCEE881CF
:1002BA00FCCFE4E0EA93CFCE8F01EAE0F0E0E5DF9D
:1002CA000BC09F01EAE0F0E0E0DF06C01A930A9350
:1002DA000895E5E0EA93BFCEE991F991309639F0B5
:1002EA0080ED97E00197F1F7A8953197C9F708953E
:1002FA006E2F6A9FF0016B9FF00D08950024112460
:10030A0090E1AA0FBB1F001C111C0E1A1F0A18F439
:10031A000E0E1F1E01C0A1609A9599F7FD01D0012A
:10032A0008951B2EBF2FF12D1A2EAE2FE12D089501
:00000001FF
