:0C00000012C0FECFFDCFFCCFFBCFFACF2B
:10000C00F9CFF8CFF7CFF6CFF5CFF4CFF3CFF2CFC0
:10001C00F1CFF0CFEFCFEECFEDCFF894EE27ECBBD6
:10002C00F1E0FBBFEBBFE5BFF8E1F1BDE1BD8DE059
:10003C00A2E0BB27ED938A95E9F780E094E0A0E677
:10004C00ED930197E9F7EFE5EDBFE4E0EEBFC0E615
:10005C00D1E0BDC0E881E064E7B98BE18A95F1F7A6
:10006C00369A349BFECF349AE4B1F5B121960895BB
:10007C002DD1EE81E13011F4E4E001C0E5E01E2F5A
:10008C001A93E8DF9F01A5E0A29FF001A39FF00D5A
:10009C00DF01E4E6F0E007D10F01E20FF31FAC81C2
:1000AC00BD81AE17BF0730F4F901E019F109EA1769
:1000BC00FB0708F002C0E1E001C0E0E00CD127969C
:1000CC000895C8D0AA39E3E0BE0750F0C6D019F4A1
:1000DC00A89AA99A04C0C4D011F4AA9AAB9A75C074
:1000EC00B9D0A636E0E0BE07A8F4B7D039F4A99A87
:1000FC00A898B9D011F4C0D0FCCF08C0B1D049F445
:10010C00AB9AAA98B0D011F4B7D0FCCFE4EFF1E0E1
:10011C00B8D05BC09FD0A736E2E0BE07E0F09DD020
:10012C0061F4A99AA8989FD011F4A6D0FCCFA998F5
:10013C00A89AAAD0A99AA89A0DC092D059F4AB9AB1
:10014C00AA9891D011F498D0FCCFAB98AA9A9CD0D5
:10015C00AB9AAA9A3AC07ED0A433E1E0BE07A8F0CD
:10016C007CD039F4A89AA9987ED011F485D0FCCF14
:10017C0008C076D049F4AA9AAB9875D011F47CD00B
:10018C00FCCFE4EFF1E07DD020C064D0A736E0E0F6
:10019C00BE07D8F062D061F4A89AA99864D011F483
:1001AC006BD0FCCFA898A99A6FD0A89AA99A0DC029
:1001BC0057D059F4AA9AAB9856D011F45DD0FCCF15
:1001CC00AA98AB9A61D0AA9AAB9A2396089500E0AC
:1001DC0010E020E030E0EFE0E8BBE0E0E7BBE5BB9F
:1001EC00EFE0E4BBE0E0E2BBEFEFE1BBE0E0E3BF5C
:1001FC00E2BFEFBDEEBDEDBDECBDE7BDE6BDEBBDB9
:10020C00EABDE9BDE8BDE2BDE5BDE4BDE3BDE5BFCA
:10021C00E9BFEAB9E0E8E8B9E0E0E0BFE0E4E7B95B
:10022C00E1E8E6B9E0E0EDB9E6BFE4E0EA9312DF1D
:10023C008F011A930A93E1E0EA9343DFE5E0EA9336
:10024C0009DF9F013A932A93E2E0EA933ADF1CD04C
:10025C00ECCFFFCFA981BA810895E881E1300895F0
:10026C00E881E2300895E881EA93EA81FB81FA9310
:10027C00EA93FEDEE1300895EAE0F0E0FA93EA93C7
:10028C0006C0FA93EA9303C0E2E3F0E0FACFE991F7
:10029C00F991309639F080ED97E00197F1F7A89538
:1002AC003197C9F708950024112490E1AA0FBB1FC0
:1002BC00001C111C0E1A1F0A18F40E0E1F1E01C072
:1002CC00A1609A9599F7FD01D00108953A932A936C
:1002DC001A930A9308953B812A8119810881089504
:00000001FF
